:100000000C9461000C947E000C947E000C947E0095
:100010000C947E000C947E000C947E000C947E0068
:100020000C947E000C947E000C947E000C947E0058
:100030000C947E000C947E000C947E000C947E0048
:100040000C94E7010C947E000C947E000C947E00CE
:100050000C947E000C947E000C947E000C947E0028
:100060000C947E000C947E00000000002400270009
:100070002A0000000000250028002B0000000000DE
:1000800023002600290004040404040404040202DA
:100090000202020203030303030301020408102007
:1000A0004080010204081020010204081020000012
:1000B0000008000201000003040700000000000027
:1000C000000011241FBECFEFD8E0DEBFCDBF11E08E
:1000D000A0E0B1E0ECE8F5E002C005900D92AA398D
:1000E000B107D9F721E0AAE9B1E001C01D92A93A10
:1000F000B207E1F70E9431020C94C4020C94000094
:10010000833081F028F4813099F08230A1F0089595
:100110008730A9F08830B9F08430D1F48091800024
:100120008F7D03C0809180008F7780938000089539
:1001300084B58F7702C084B58F7D84BD089580918A
:10014000B0008F7703C08091B0008F7D8093B000A6
:100150000895CF93DF93282F30E0F901E255FF4F48
:100160008491F901E656FF4FD491F901EA57FF4F08
:10017000C491CC2391F081110E948000EC2FF0E01B
:10018000EE0FFF1FE458FF4FA591B491EC91ED23C2
:1001900081E090E021F480E002C080E090E0DF9117
:1001A000CF9108951F93CF93DF93282F30E0F9016B
:1001B000E255FF4F8491F901E656FF4FD491F901C2
:1001C000EA57FF4FC491CC23C9F0162F81110E942A
:1001D0008000EC2FF0E0EE0FFF1FEE58FF4FA591CF
:1001E000B4918FB7F894111105C09C91ED2FE09553
:1001F000E92302C0EC91ED2BEC938FBFDF91CF91FF
:100200001F910895CF93DF9390E0FC01E656FF4FD6
:100210002491FC01EA57FF4F8491882361F190E01B
:10022000880F991FFC01E859FF4FC591D491FC013B
:10023000EE58FF4FA591B491611109C09FB7F89492
:100240008881209582238883EC912E230BC0623015
:1002500061F49FB7F8943881822F80958323888337
:10026000EC912E2B2C939FBF06C08FB7F894E8819A
:100270002E2B28838FBFDF91CF9108953FB7F8943D
:1002800080919F019091A001A091A101B091A20144
:1002900026B5A89B05C02F3F19F00196A11DB11DE1
:1002A0003FBFBA2FA92F982F8827820F911DA11D1C
:1002B000B11DBC01CD0142E0660F771F881F991F59
:1002C0004A95D1F708958F929F92AF92BF92CF92A5
:1002D000DF92EF92FF920E943E014B015C0188EE9B
:1002E000C82E83E0D82EE12CF12C0E943E01DC01C7
:1002F000CB0188199909AA09BB09883E9340A10539
:10030000B10558F021E0C21AD108E108F10888EEE1
:10031000880E83E0981EA11CB11CC114D104E10415
:10032000F10419F7FF90EF90DF90CF90BF90AF905E
:100330009F908F9008950F931F93CF93DF93C0E00A
:10034000D1E00CE811E068812296F80180810E5F0F
:100350001F4F0E94D200F1E0CE30DF07A1F7DF91FE
:10036000CF911F910F910895EF92FF920F931F93DA
:10037000CF93DF938A309105DCF40CE811E02EE096
:10038000289F7001299FF00C1124C0E0D0E0F801F3
:1003900080810E5F1F4FFE01EE0DFF1DE050FF4FED
:1003A00060810E94D2002296CE30D10581F708C02C
:1003B000DF91CF911F910F91FF90EF900C949B01D3
:1003C000DF91CF911F910F91FF90EF9008951F92B1
:1003D0000F920FB60F9211242F933F938F939F93F9
:1003E000AF93BF9380919B0190919C01A0919D013F
:1003F000B0919E0130919A0123E0230F2D3720F414
:100400000196A11DB11D05C026E8230F0296A11D6E
:10041000B11D20939A0180939B0190939C01A0931E
:100420009D01B0939E0180919F019091A001A091A8
:10043000A101B091A2010196A11DB11D80939F0160
:100440009093A001A093A101B093A201BF91AF919D
:100450009F918F913F912F910F900FBE0F901F9002
:100460001895789484B5826084BD84B5816084BD1C
:1004700085B5826085BD85B5816085BD80916E0042
:10048000816080936E001092810080918100826073
:1004900080938100809181008160809381008091B0
:1004A00080008160809380008091B100846080939F
:1004B000B1008091B00081608093B00080917A009B
:1004C000846080937A0080917A00826080937A00C1
:1004D00080917A00816080937A0080917A008068B0
:1004E00080937A001092C100CCE8D1E088812296F6
:1004F00061E00E94020181E0CA39D807B9F760E0E3
:1005000089E00E94020160E08AE00E9402010E94EC
:100510009B0100E010E089E00E94A900EC019093AB
:10052000A8018093A7018AE00E94A9009093A601E8
:100530008093A501C130D105B9F4892BF9F4C0919C
:10054000A301D091A4012196D093A401C093A3014B
:10055000CE010E94B4012A9724F01092A4011092B7
:10056000A3010E9463010AC0CD2B41F4019731F42D
:10057000C091A301D091A4012197E6CF01151105E7
:0C05800051F20E940000C7CFF894FFCF9A
:10058C000100010001000100010001000000000059
:10059C00010001000000000000000000010001004B
:1005AC000000010001000000010001000100010039
:1005BC00010000000000010000000100010000002B
:1005CC00000001000100010000000100010000001A
:1005DC000100010001000000010001000100010008
:1005EC0001000100010001000000000000000000FB
:1005FC0001000100010001000100010001000100E7
:10060C0001000100000000000100010002000300D5
:0A061C0004000500060007000800B6
:00000001FF
